:020000040000FA
:10000000DBEF07F01200FFFF04EF08F01200FFFF24
:10001000FFFFFFFFFFFFFFFF0CEF08F01200FFFFE5
:100020000000F00E8B1694160201A36BA769A86955
:10003000A969A66B010EAA6F1200D9CFE6FFE1CF26
:10004000D9FFE6520201A3511FE1020108BF1BD0F4
:10005000400EE66EA50EE66E000EE66E09EC06F0AA
:10006000E552E552E5520201010EA36FDF6A400E30
:10007000DF5C09E2DF50EA6A600FE96E000EEA22F7
:10008000EF6ADF2AF4D796D10001A551080A01E1F1
:1000900080D10F0A01E123D1010A01E118D1030A3D
:1000A00001E1B4D0010A6AE0070A5DE0010A01E05B
:1000B00081D10001020E606F00013A0E616F0001F4
:1000C000010E626F0001010E636F0001646B100E80
:1000D000656F666B676B0001686B300E696F6A6BEA
:1000E0006B6B0001030E6C6F00016D6B6E6B300E5D
:1000F0006F6F706B00010E0E716F726B736B746BB0
:100100000001010E756F0001766B776B200E786F22
:10011000796B0001080E7A6F7B6B7C6B7D6B000145
:100120007E690001020E7E6F00017F6B806BF00E16
:10013000816F826B0001836B010E846F856B866B10
:100140000001876902010CBF0DD0400EE66E600E03
:10015000E66E000EE66ED9EC05F0E552E552E5528A
:100160000201A36B27D10201010EAA6F0001A65163
:1001700002E10201AA6B0201A36B1CD1400E020135
:10018000A46FA56B0201000EA45D010EA5591FE22C
:100190000400A4C200F0A5C201F0026A060E1F0B03
:1001A00000C0F6FF01C0F7FF02C0F8FF06E0D890DC
:1001B000F636F736F836E806FAE1940EA66EA3D9BD
:1001C00063EC06F00201A42B000EA523DBD7DF6A47
:1001D000DF50A96EA868040EA66E63EC06F093D9F2
:1001E000DF50DF2A006E016A026AFF0E005C000E1B
:1001F0000158000E0258ECE3F66AF76A200EF86E1A
:10020000940EA66E80D90201A36BD4D0300E0001EB
:10021000A85D07E10201AA5101E132D90201A36BF5
:10022000C9D0F00E0001A85D04E14DD90201A36B15
:10023000C1D0E8680201A71905E1E868A81902E140
:10024000E868A91906E1A6C0A7F2A7C0A8F2A8C04D
:10025000A9F2A70EE96E020EEA6EEE500001A61991
:1002600008E1EE500001A71904E1EE500001A819C1
:1002700000E12AE1DF6A0001AA51DF5C25E23A0EC3
:100280000001D880AA55DF24EA6AAB0FE96E000EA0
:10029000EA22EF50E66E0201A651EA6AAB0FE96E60
:1002A000020EEA22E552E750EF6E0201A62B020190
:1002B000A72B000EA823000EA923100E0201A65D95
:1002C00001E17DD8DF2AD7D70201A36B73D077D89D
:1002D0000201A769A869A9690201A36B6BD000019B
:1002E000070E606FA6C061F0A7C062F0A8C063F0FF
:1002F000A9C064F0AAC065F0A6C0F6FFA7C0F7FFCA
:10030000A8C0F8FFDF6A0001AA51DF5C31E2F00EFD
:100310000001A85D13E1DF500001A625A96EA66AC1
:10032000A6803A0E0001D880AA55DF24EA6A660F3B
:10033000E96E000EEA22A8CFEFFF18D00900300EB8
:10034000F85C08E1050EF65C01E1F568080EF65C64
:1003500001E1F5683A0E0001D880AA55DF24EA6A67
:10036000660FE96E000EEA22F5CFEFFFDF2ACBD74A
:1003700002010CBF0DD0400EE66E600EE66E000E60
:10038000E66ED9EC05F0E552E552E5520201A36BA9
:1003900011D06492646ADF6AFF0EDF5C09E2E868EC
:1003A000E85004E0E80600D000D0FAD7DF2AF4D7FE
:1003B000FF0000D0E552E552E7CFD9FF120000015F
:1003C000A16BA6C200F0016A026A00500201A75D9B
:1003D000F66E01500201A859F76E02500201A959A8
:1003E000F86E0F0EF6140001A26FF00EF616000163
:1003F000A06B100E0001A05D1FE20001A25115E1EB
:100400000201A6510FE00001A151EA6AAB0FE96EAB
:10041000020EEA22EF50F56E0D000001A12B020141
:10042000A60702D0F5680D0004D0F5680D000001A4
:10043000A2070001A02BDDD70A00A40EA66E63D888
:100440000001A06B0201A6510001A05D18E20001AD
:10045000A1510001A025EA6AAB0FE96E020EEA2263
:10046000EF50E66E0001A051EA6AAB0FE96E020E92
:10047000EA22E552E750EF6E0001A02BE3D712000D
:10048000A6C0F6FFA7C0F7FFA8C0F8FF0001A36B46
:100490000001AA510001A35D15E23A0E0001D880C7
:1004A000AA550001A325EA6AAB0FE96E000EEA2205
:1004B000EF50F56E0C00C40EA66E25D809000001A1
:1004C000A32BE6D712000001A46B0001AA51000182
:1004D000A45D18E20001A6510001A425A96E3A0E00
:1004E0000001D880AA550001A425EA6AAB0FE96E85
:1004F000000EEA22EF50A86E040EA66E04D800018A
:10050000A42BE3D71200F29E550EA76EAA0EA76E7B
:10051000A682A6B2FED7A69412007DD9E6526350F9
:1005200032E16296020100513C0BE842E8420D08BC
:1005300028E1180E021923E1020E031920E1100E22
:10054000026F020E036FDF6ADF50006E016A080E51
:10055000005C000E015813E2DF50EA6A180FE96EE2
:10056000020EEA22EF50E66EDF50EA6A100FE96EE3
:10057000020EEA22E552E750EF6EDF2AE5D70ED8E9
:100580000AD03FD808D0040E635C03E1629650D8CD
:1005900002D0000E01D0010EE55242D13CD9E65204
:1005A000020104BF046B0201FD6BF56BF66BFB6B84
:1005B000FC6B1CEC04F0DF6ADF50006E016A010E78
:1005C000005C000E01581AE20201F65117E1F76AC9
:1005D000DF34FE0BF736F66EA00EF6260E0EF7226F
:1005E0000900F5CF00F00800F5CF01F004D001C0FC
:1005F000FAFF0050F96EFBDFDF2ADED7B7D8E552ED
:100600000FD1020E0201F55D0EE184D80201180E31
:10061000026F020E036F080E016F00BD02D0C80EFC
:1006200005D0880E03D0DBD8E7D88C0E006F1200FF
:10063000040E0001E55D0CE112C25CFF0F015C518C
:10064000000803E20001050E02D00001030EE56F71
:100650000201F50510E111D8020E0201FD5D03E172
:100660000201840E06D0020104BD02D0C80E01D0E2
:10067000880E046F1200EFEF03F0CDD8020EE126D2
:100680000201080EFB5D000EFC590DE2FBC2DEFF0D
:10069000FCC2DDFFFD5102E1010E03D0FD0506E1C4
:1006A000020EFD6F03D0080EDE6EDD6A02010493B8
:1006B0000491010EDB500413DFCF05F2000EDB5076
:1006C0000201FB5F010EDB50FC5B180EF96F020E9E
:1006D000FA6F0001E6A30CD097D815E0F7C2F6FF39
:1006E000F8C2F7FF0800F5507FD8F6E2DB06F4D732
:1006F0008BD809E0F7C2E9FFF8C2EAFFEF5074D8DF
:10070000F7E2DB06F5D7020EE15C02E2E16AE552B0
:10071000E16E86D080D8020EE126030E020100159C
:10072000E76E010EE7CFDBFF01C2DFFFDE50020103
:10073000FB27DD50FC23180EF76F020EF86F64D80C
:100740000EE0F7C2E9FFF8C2EAFFEF50F9C2E9FF95
:10075000FAC2EAFFEF6E68D8F2E2DB06F0D7020ECB
:10076000E15C02E2E16AE552E16E5AD0649802016E
:10077000F65105E141D8840E006F02011DD002013F
:1007800010AF1CD00201FB510201165D0201FC51A9
:100790000201175904E216C2FBF217C2FCF26DDF28
:1007A0000201010EF56F28D8800E006F0201180EAD
:1007B000066F020E076FC80E046F12000201020ED0
:1007C000F56F0201056BC80E046F0201080E016F80
:1007D000180E026F020E036FC80E006F12000201A6
:1007E000F56B0201046B1200F9C2E9FFFAC2EAFFDD
:1007F000EF6E020114EF04F00201080E016F100EFB
:10080000026F020E036F1200D9CFE9FFDACFEAFFC1
:10081000EE50ED101200D9CFE6FFE1CFD9FF120064
:10082000E552E7CFD9FF1200F92B000EFA23F72B80
:10083000F823DF06010E120002011051600BE8429E
:10084000E842E842E842E842000901E012001151A2
:10085000070A40E00B0A3EE0070A33E0010A23E002
:100860000B0A1FE0020A1DE0030A19E0080A10E063
:10087000010A0CE00F0A08E0030A01E0120012D995
:100880000001040EE56F12006BEF04F0A2EF04F01C
:1008900009D90201E70EF76F000EF86F0CD0BDEF1B
:1008A00004F0EFEF04F002D90201F76FF86BE80EE5
:1008B000F727000EF8230001E6930201010EFB6FFB
:1008C0001200F4D8EA6AE80FE96E000EEA2212C2BA
:1008D000EFFF12001200800E0201105D32E1135191
:1008E000030A1FE0010A0AE0030A29E1DBD802013A
:1008F000E00EF76F0D0EF86F120E1ED0B2D8960EE6
:10090000F6260E0EC0D8020E0201F76AF725F66E23
:10091000F851F7220900F5CFFBF20A00F5CFFCF2FF
:100920000ED09FD89A0EF6260E0EADD8F7C2F6FF5F
:10093000F8C2F7FF0800F5500201FB6FFC6B0001E5
:10094000E6831200AFD8070EE66E540EE66E0F0E69
:10095000A2D8010EE66EE80EE66E000E9CD812C21A
:10096000E7F00201125104E10001050EE56F1200EB
:100970000001060EE56FC3EF05F00201186B196B5D
:10098000020110511F0B020A0FE0030A0BE0010ADB
:1009900018E188D8020118810001E6A112D00201F5
:1009A00018830FD07FD80DD050D801E0010E62D847
:1009B000F9C2E9FFEA6EEF50040B03E00201010EF9
:1009C000186F0201F6050AE10201180EF76F020E18
:1009D000F86F0001E6930201020EFB6F12000201A4
:1009E00012050EE110511F0B00090AE15BD8030E3E
:1009F0000201115D03E10001E68102D00001E691F0
:100A00000201125121E110511F0B02081DE1145186
:100A10000F0B000919E019D801E0010E2BD8030EC5
:100A20000201115D02E1840E03D014AF07D0400E25
:100A3000F9C2E9FFFAC2EAFFEF6E1200880EF9C2AE
:100A4000E9FFFAC2EAFFEF6E120030D80F0B080D73
:100A5000F350016A000F006E020E01221451800B48
:100A6000120020D802011251F66EF76AD890F636BD
:100A7000F7361200040DF35002010024F96F000E46
:100A80000120FA6F1200F7220900F5CFF7F20A00F1
:100A9000F5CFF8F21200E66EDBEC06F0E552E55217
:100AA000E55212000201010EF66F1200FBDF020197
:100AB00014511200020110511F0B010801E0120035
:100AC000145101E01200060E115D24E11351230AB6
:100AD0001FE0010A0DE0030A1BE1DCD80001E70575
:100AE00005E10201040EF76F0E0EF86F090E0DD02E
:100AF000D1D80001E70505E10201790EF76F0E0E6E
:100B0000F86F0001E70504E11D0E0201FB6FFC6BAD
:100B10000001E68302011051600BE842E842E8421E
:100B2000E842E842010801E0120011510B0A25E0F9
:100B3000080A17E0090A11E0080A09E00B0A05E0B3
:100B4000080A01E01200C1EF05F0C2EF05F0A2D8DB
:100B50000201E90EF76F000E09D09CD813C2E9F02C
:100B6000120098D80201EA0EF76F000EF86F00012C
:100B7000E6930201010EFB6F12008CD812C2EAF05C
:100B80001200120012000001EB6B0F011E0E546FD9
:100B90000201400E096F200E0A6F020E0B6F880EC5
:100BA000086F0201600E0E6F020E0F6F400E0C6F89
:100BB0001200D9CFE6FFE1CFD9FFE652FC0EDB50A1
:100BC000400805E2400EF36EFC0EF3CFDBFFDF6A58
:100BD000FC0EDB50DF5C0FE2DF5050D8EF50E66ECA
:100BE000DF50EA6A600FE96E020EEA22E552E75032
:100BF000EF6EDF2AEDD7FC0EDBCF0DF2400E0201C7
:100C00000C170C7D880E0C13E552E552E7CFD9FF87
:100C10001200D9CFE6FFE1CFD9FF0001EB6B020153
:100C200008BF26D0FC0EDBCF00F00951D88000545D
:100C300003E2FC0E09C2DBFF0001EB6BFC0EDB5094
:100C4000EB5D0FE2EB51EA6A200FE96E020EEA2239
:100C5000EF50E66EEB5112D8E552E750EF6EEB2BFA
:100C6000EDD70201400E096F0817087D880E0813A2
:100C70000001EB51E552E7CFD9FF1200E76EFD0E00
:100C8000DBCFE9FFFE0EDBCFEAFFE750E926000EDF
:100C9000EA2212000201020EF66F120064A60CD8BE
:100CA0000001E50508E164BA06D0626A606A608006
:100CB0006088020EE56F1200646A606A6486000153
:100CC000010EE56F12000001E55101E1120062B46E
:100CD00025D864B2120062B03AD862B817D862BAA6
:100CE00024D8030E0001E55D01E212000201FE6B53
:100CF000040EFE5D0AE262A608D08DEC02F0000947
:100D000001E162960201FE2BF3D712006084629823
:100D10006482A194A0840300A09412006492609461
:100D200062A402D06294FCD712000F0153A10DD02F
:100D3000800E0201005D07E1840E0201045D03E103
:100D400002018C0E006F0F015391629A12000F0185
:100D50005F6B626A0F019F0E5B6F7B0E606E0F010F
:100D60005C6B070EE66E540EE66E0F0EE66E23D831
:100D7000E552E552E5520F01160E536F62A605D0FB
:100D8000629600D000D00000F9D76498EFEC03F031
:100D90000201080E016F0201100E026F020E036FB6
:100DA00002018C0E006F0001E6910001E76B00016B
:100DB000030EE56F1200D9CFE6FFE1CFD9FFFD0E9C
:100DC000DBCFE9FFFE0EDBCFEAFFFC0EDB5004E0D9
:100DD000EE6AFC0EDB06F9D7E552E7CFD9FF120029
:100DE0001201000200000008D8043C0002000102C9
:100DF000000109022900010100C0320904000002BB
:100E000003000000092111010001221D00070581D6
:100E100003400001070501034000010403090434F5
:100E2000034D006900630072006F00630068006991
:100E3000007000200054006500630068006E006FC1
:100E4000006C006F0067007900200049006E0063AD
:100E5000002E00260348004900440020005500539E
:100E6000004200200042006F006F0074006C006FB1
:100E70000061006400650072000600FF0901A10125
:100E800019012940150026FF0075089540810019B9
:100E90000129409100C0F20DF20D1B0E1F0E530EE2
:100EA000B40A200EF66E000EF76E000EF86E020108
:100EB0000900F550F06F0900F550F16F03E1F0679C
:100EC00001D03DD00900F550EB6F0900F550EC6FF3
:100ED0000900F550ED6F09000900F550E96E0900B1
:100EE000F550EA6E090009000900F550EE6F09009F
:100EF000F550EF6F09000900F6CFF2F2F7CFF3F2E9
:100F0000F8CFF4F2EBC2F6FFECC2F7FFEDC2F8FF48
:100F10000201EE5302E1EF5307E00900F550EE6ED7
:100F2000EE07F8E2EF07F9D7F2C2F6FFF3C2F7FFD8
:100F3000F4C2F8FF0201F007000EF15BBFD7120008
:100F4000D9CFE6FFE1CFD9FFE6527F6A948C82AC1D
:100F500002D000EF08F011D8040019D8060E0001E5
:100F6000E55D05E16450020B02E11DEC00F0F4D7F1
:100F7000E552E552E7CFD9FF1200140E616E000171
:100F8000E56B0001E66B0001E76B11EF00F04EEC42
:100F900006F063EF06F0000EF36E00EE00F0030EB5
:100FA00001D81200EA6002D0EE6AFCD7F350E96083
:100FB0001200EE6AFCD711EE00F021EE00F0F86AA4
:100FC000049C51EC07F0E9EC07F0A0EC07F0FBD72C
:100FD00012001200FFFFFFFFFFFFFFFFFFFFFFFFF9
:100FE000FFFFFFFFFFFFFFFFFFFFFFFFFFFFFFFF11
:100FF000FFFFFFFFFFFFFFFFFFFFFFFFFFFFFFFF01
:10100000B7EF13F0120012007AEF0EF01200000199
:101010000000000000FFFFFFC5EF0EF0120001000E
:101020000E1000007E0100000700000041EC0EF0F1
:10103000A0940F015F6B626A536B8FEC0DF0C5ECEF
:101040000DF0DF6ACDEC0DF003E27FEC0DF0FAD786
:10105000648C0F015C6B6498649C62A607D06296F6
:101060000101576B5C6B5D6B5E6BF7D70101010E85
:10107000706F716F726B736B646BDF6A030EDF5C92
:101080001AE2EA6ADF3444EC0EF0EA22EE6AED6A14
:10109000EA6ADF344BEC0EF0EA22EE6AED6ADF50CA
:1010A0005EEC0EF0EA22EF6ADF5059EC0EF0EA2215
:1010B000EF6ADF2AE3D70101080E4D6F020E4E6F73
:1010C0000F01160E536F0201300E026F020E036FF6
:1010D000080E016F840E006F0101416B406BE552F9
:1010E00059EF0DF041EC0EF00101400507E164BA43
:1010F00005D0626A60806088020E406F6250040B07
:1011000005E06050040B02E062949AD864B246D0C5
:101110006250010B09E06050010B06E087DFA084FC
:101120000101040E406F62906250100B05E06050A8
:10113000100B02E07AD8629862AC0FD060AC05D098
:10114000E4EC0DF0730E46EC0DF0629C01016E5163
:1011500001E06E076E5101E111DA6250200B04E0EC
:101160006050200B01E04DD86250020B0CE0605043
:10117000020B09E0E4EC0DF0E6687F0EE66E52EC3F
:101180000EF00F015F6B040E0101E76E4019E8AE2F
:1011900002D0E73402D0E750405D02E2A1942ED0A5
:1011A00060A62BD0DF6A040EDF5C27E262A625D0A2
:1011B00063CF65F101016551780BE842E842E842EE
:1011C000666F629665B504D0665159EC0EF003D097
:1011D00066515EEC0EF0EA22EF70665102E13ED8F5
:1011E0000AD0000EE66EE66A650EE66E010EE66E49
:1011F000720E46EC0DF0DF2AD6D7A194E55259EFD6
:101200000DF00F0153A10FD065EC0DF0EF508008E9
:1012100009E14FEC0DF0EF50840804E165EC0DF0AE
:101220008C0EEF6E5391629A120060846298648211
:101230000101010E646FABEC0DF0750E46EF0DF081
:101240000101646BABEC0DF0740E46EC0DF0649292
:10125000609462A402D06294FCD7120041EC0EF0BC
:1012600001012D0E6E6FFD0E651540E17E0E6515B8
:10127000E8407F0B040DF3CF43F1F4CF44F1000EAF
:101280004327020E442343C145F144C146F145754D
:1012900065EC0DF0EF503C0BE842E8420D0824E10C
:1012A000DF6A080EDF5C1AE265EC0DF0020EE9263B
:1012B000000E98EC0DF0EF50E66EDF50EA6A300F4A
:1012C000E96E020EEA22E552E750EF6E65EC0DF092
:1012D00071EC0EF0EE2AEF22DF2AE3D765EC0DF079
:1012E00011EC0EF00AD807D025D805D0FD0E6515F3
:1012F000040801E12ED8E552DCD30101536B6F6B7A
:10130000726B736B676B546BCADBEF9E4D75C7DBFB
:10131000EF9E4D7500EC0EF0EF9E576B586B596BBE
:101320005C6B5D6B5E6B53D8ABEC0DF0030EAEDB0C
:1013300076EF0BF0020E0101545D02E1E2EF0BF0DB
:10134000546B675104E199DB8C0EEF6E1200676BF2
:10135000120041EC0EF0A3DBEF50400B01E0010E58
:10136000DF6E01014D75080E405D0BE132C25CFF7E
:101370000F015C5103E00101100E02D00101040EC7
:10138000406F540513E18BDBA5DBDDD9020E0101B3
:10139000535D03E184DB840E07D0DF5003E17FDB84
:1013A000C80E02D07CDB880EEF6E0FD05CAF0CD085
:1013B0005F51601107E005D060C1FAFF01015F5184
:1013C000F96EFADF01015C9F546BE55272D30201A2
:1013D0003051600BE842E842E842E842E842000946
:1013E00001E0120031510C0A45E00B0A3FE00C0A03
:1013F00031E0010A22E00B0A1EE0020A1CE0030AA7
:1014000018E0080A10E0010A0CE00F0A08E0030ADD
:1014100001E012000101578F080E406F120000EF2B
:101420000BF046EF0CF00101410E556F010E566FA7
:101430000CD03DEF0BF03BEF0AF034510101556F3A
:10144000566B420E5527010E56235781010E586FD9
:10145000578F12000101578F02013451EA6A420F7F
:10146000E96E010EEA2232C2EFFF120074DB020EB7
:1014700046EF0DF0120018DB030EE12602013205E3
:1014800010E130511F0B00090CE10101578F030ED1
:101490000201315D04E10101010E636F02D001011F
:1014A000636B0201325163E130511F0B02085FE1AF
:1014B00034510F0B00095BE034510F0B020857E366
:1014C000200E0101405D53E1578F020134BF04D06B
:1014D000C3DB47DB4CDB03D0C4DB43DB4CDBEA2262
:1014E000020EEFCFDBFF77DB010B03E1000EDF9491
:1014F00001D0DF8434BF02D0AFDB01D0B2DBEA22FF
:10150000DECFEEFFDDCFEDFF030E315D0CE1DBDB67
:1015100007E034BF02D02BDB01D02DDBEA22EF82C3
:10152000840EE4DB24D0DF74CEDB06E0B3DAEF9E7A
:10153000B1DAEF8C80DB02D0ADDAEF8CDF744BDBFD
:10154000020B06E1C0DB11E0A5DAEF50040B0DE160
:10155000020134BF02D00BDB01D00DDBEA22EF9297
:101560003B0E106EB4DB67DB02D03B0EB0DB030E2C
:10157000E15C02E2E16AE552E16E9BD20101705149
:1015800021E1010E706F71511DE1010E716F020EAC
:10159000545D07E184DAEE52EF6A81DAC80EEF6E2D
:1015A000120054050FE1676B90DAEE52080EEF6EF1
:1015B0008CDA37DB8ADA840EEF6E010E676F5DDA44
:1015C000800EEF6E12000101726B736B020E545DA0
:1015D00004E181DB7FDA14DB10D058510201365D63
:1015E000010159510201375904E236C258F137C29C
:1015F00059F1A9D854DA6EDA52DAC80EEF6E120039
:10160000800E0201305D38E10101C00E576F02010A
:101610003351030A1AE0010A09E0030A2BE1010130
:101620006A0E556F250E566F120E1ED0E2DA2B0E83
:10163000F626260EBADA020E0101D4DAF5CF58F1F9
:10164000030ED0DAF5CF59F11200030E325D0FE22E
:10165000D0DA2D0EF626260EA8DA55C1F6FF56C1B1
:10166000F7FF0800F5500101586F596B1200010196
:10167000576B12000101576B1200D9DA0201386B67
:10168000396B30511F0B020A11E0030A0CE0010A0A
:101690001CE10101578F020138810101630515E149
:1016A0000201388312D00101578F0FD00101578FEB
:1016B000020134BF02D0D0DA01D0D3DA52DAEAD94B
:1016C000EF50040B02E0010E386F010157AF07D055
:1016D000380E556F020E566F5781020E586F020E6C
:1016E000E15C02E2E16AE552E16EE3D16498010156
:1016F00057BF0DD05CAF09D0020E546F735101E19A
:1017000062DF0101716B706B120025EF0EF00201B8
:1017100030AF0DD00101010E546F725101E153DF62
:101720000101716B706B6F510DE1BEEF0AF00101A9
:10173000020E546FA2D9840EEF6E716B706B6F51F5
:1017400001E11CDF12009DDA080EDF6E0101585D19
:10175000000E59590AE258C1DFFF535102E1010E50
:1017600003D0530502E1020E536FDF50116AE850B7
:10177000585D586F11505959596F91D9EE52DFCFBA
:10178000EFFF380E616F020E626F57B10DD0DF5060
:1017900017E055C1F6FF56C1F7FF552B000E562333
:1017A0000800F550CBD9F3D7DF500AE055C1E9FF67
:1017B00056C1EAFF552B000E5623EF50BFD9F4D780
:1017C000E55277D134DA81D9EE52EFCFDFFFDFCFA8
:1017D00010F0105001015D5D000E5E5902E25DC126
:1017E000DFFFDF50106E116AE8505D5D5D6F1150D4
:1017F0005E595E6F010EDB6ADF50F36E010EDBCFC8
:10180000F4FFF350F45C16E2010EDB50EA6A380F85
:10181000E96E020EEA22EF50E66E5AC1E9FF5BC1A3
:10182000EAFF5A2B000E5B23E552E750EF6E010EE4
:10183000DB2AE2D7000ED8805D55000E5E550DE222
:101840004ADA48D942D9EF50400B03E1D9D9C80E42
:1018500002D0D6D9880EEF6E12D00FD9840EEF6E5B
:101860005F51601107E005D060C1FAFF01015F51CF
:10187000F96EFADF01015C9F6F5101E17FDE020E1C
:10188000E15C02E2E16AE552E16E13D1FAD90101AD
:10189000578F45D9DF6A81D902E231D9FCD7648CF0
:1018A000010EE66EE66AE66A420EE66E010EE1D9C8
:1018B000649C0101080E4D6F020E4E6F000E436FC7
:1018C000020E446F43C145F1466F32C241F14151AE
:1018D00002E1100E0BD0010EE66EE66A410EE66ED6
:1018E000010EE66E010ED2D80101200E406FE552C6
:1018F000E0D09DD9000EDE6E020EDD6EF1D8040D33
:10190000F4CF11F0D9CFE9FFDACFEAFFF350EE269A
:101910001150ED22BFD8EF9EFD0EDB5002E1EAD858
:1019200001D0AFD8EA22DECFEEFFDDCFEDFFB2D897
:10193000EF9CB0D8040EE926000EEA22EF8C020ECE
:10194000E15C02E2E16AE552E16EB3D070D9FD0ECE
:10195000DBA402D0E66A31D9FD0EDBA203D0010E72
:10196000E66E2BD9FE0EDB50116A530F106E0F0E70
:1019700006D990D8FD0EDBCFEFFF020EE15C02E24C
:10198000E16AE552E16E95D052D9FE0EDB5002E1DC
:101990005CD905D0A5D839D9A3D8010F36D9020E04
:1019A000E15C02E2E16AE552E16E83D040D9FD0ECE
:1019B000DB5002E066D801D09DD8D3D8D9CFE9FF5B
:1019C000DACFEAFFEE50ED1003E1F36AF46A21D0BA
:1019D00061D887D9FB0EDBCFEEFFFC0EDBCFEDFF2E
:1019E00059D8EE52FA0EDBCFEFFF400E70D9880EB9
:1019F0007DD9FD0EDB5002E044D801D07BD8EA222D
:101A0000EF74DECF10F0DDCF11F010C0F3FF11C086
:101A1000F4FF020EE15C02E2E16AE552E16E49D0B8
:101A200043D864A812D022D9400EEE16EE6AEE6AB0
:101A3000EE6A1CD9EE7C25D8EA22EF74400E106EB7
:101A400015D91050EF1612D9EF7C33D0646A606A52
:101A50000101406B1200010140510EE1646A606AAD
:101A600094D8D08EA284A084F28E64B602D064860C
:101A7000FCD70101010E406F12002DD9D2D800EF22
:101A80000EF0FE0EEA6ADB3444EF0EF0E66EE66A14
:101A900052EF0EF0DECFE9FFDDCFEAFF12004DC1BD
:101AA000E9FF4EC1EAFF1200D9CFE6FFE1CFD9FF2F
:101AB0001200E552E7CFD9FF120034510F0BE96E47
:101AC000EA6AD890E936EA36120043C1E9FF44C118
:101AD000EAFF120006D9380EEE6E020EED6E12000D
:101AE000FD0EDB50E824126EFE0EDB50040DF350A9
:101AF00012241200FE0EEA6ADB344BEF0EF0DF50C8
:101B0000040DF3CFE9FFF4CFEAFF000EE926020E41
:101B1000EA22EE6AEE6AEE6AEE6ADF2A1200020E2E
:101B2000E66EE66AE66A540EE66E0F0E39EF0EF0C8
:101B3000EA22EE50EFCFEAFFE96E1200E66E61C1D5
:101B4000E9FF62C1EAFF612B000E6223E552E75014
:101B5000EF6EDF061200000EE66EE66AE66EE66ADB
:101B60001200EA22EECFDEFFEDCFDDFF120034518E
:101B70000F0B59EF0EF034510F0B5EEF0EF01122E8
:101B800010C0DEFF11C0DDFF1200160E616E0F01E6
:101B90009F0E5B6F7B0E606E1200DF50106E116A3D
:101BA0000C0E105C000E11581200F7220900F5CF40
:101BB00055F10A00F5CF56F11200FE0EDBCFE6FF1D
:101BC00098DEE552E5521200010EE66EE66A000E5E
:101BD000E66EE66A1200D950020FE96EDACFEAFF2C
:101BE000EF501200F76A5525F66E5651F72208009D
:101BF00012003251F66EF76AD890F636F7361200B8
:101C000045C1E9FF46C1EAFF1200040DF3CF10F011
:101C1000F4CF11F0000E1026020EB1DF840E76EF25
:101C20000EF05FD8300EEE6E020EED6E12003CDF4D
:101C3000020EE1261200020EE66EE66ADECFE6FF35
:101C4000DDCFE6FF050E46EF0DF017DF8C0EEF6ED1
:101C500026DF840EEF6E120030DF470EE926010EFC
:101C600012002BDF4D0EE926010E12000ADF98EF5D
:101C70000DF0E66E8DEC13F0106E050EE15E105067
:101C8000120012DFE6521200FE0BEA36E96E4D0E2C
:101C9000E926010E1200FE0BEA36E96E470EE92630
:101CA000010E12007FEC10F0106E060EE15E105077
:101CB0001200EA6A6B0FE96E010E1200EA6A680F01
:101CC000E96E010E1200E6DEEF50800B1200E2DE3C
:101CD000E850EF16120094DFEE52080EEF6E00EFA0
:101CE0000EF0020EE926000EEA221200D3DEE850C2
:101CF000EF121200DACFE4FFE2CFDAFFE9CFE4FF20
:101D0000EACFE4FFF6CFE4FFF7CFE4FFF5CFE4FF3F
:101D1000F3CFE4FFF4CFE4FFFACFE4FF00EE00F0EE
:101D2000100EE80403E3EECFE4FFFBD700EE10F063
:101D3000080EE80403E3EECFE4FFFBD7E65272ECB3
:101D400008F0E55200EE17F0080EE80403E3E5CFD3
:101D5000EDFFFBD700EE0FF0100EE80403E3E5CF34
:101D6000EDFFFBD7E5CFFAFFE5CFF4FFE5CFF3FFBB
:101D7000E5CFF5FFE5CFF7FFE5CFF6FFE5CFEAFFCB
:101D8000E5CFE9FFE5CFDAFF1100D8CFE4FFE0CFE0
:101D9000E4FFE46EDACFE4FFE652E552E5CFDAFF86
:101DA000E550E5CFE0FFE5CFD8FF100004D82BECDD
:101DB0000DF0CBD8FED70F0EC11202D816EF08F0E7
:101DC000E6D9E6521CD8DF6ADF50106E116A400E69
:101DD000105C000E115805E2DF50DED9EF6ADF2AF1
:101DE000F3D70001E06BE16BE36BE46B948C938CB5
:101DF000948E9388F00E8B169416E552C4D1C7D9F1
:101E0000E6527F6A938A939E240EAC6E900EAB6E60
:101E1000710EAF6E020EB06E080EB86EAE50DF6E71
:101E2000E552B1D1BFD9AD6EAED1B1D9040EE12624
:101E3000D880000E02014055C20E4155010E425598
:101E4000000E43553CE340C2C8F241C2C9F242C24F
:101E5000CAF243C2CBF2146A1B0E156EB70E166E91
:101E6000176A14C004F015C005F0066E17C007F01D
:101E7000C8C209F0C9C20AF0CAC20BF0CBC20CF04A
:101E800069EC13F004C010F005C011F006C012F0A8
:101E900007C013F01006000E115A125A135A10C040
:101EA000DFFF010E11C0DBFF020E12C0DBFF030ECD
:101EB00013C0DBFFDF50AF6E010EDB50B06E040EBF
:101EC000E15C02E2E16AE552E16E5DD1D9CFE6FF65
:101ED0005AD168D902E1000E01D0010E106E010145
:101EE000825102E0000E01D0010E101407E0200E16
:101EF000806F4E0E816F8B84949C829C80518111E7
:101F000004E18B94828C948C03D08007000E815B5B
:101F1000FE0EDBCF82F137D145D902E08B8201D0B2
:101F20008B92FE0EDBCFE6FFD4DFE5522CD12FD90A
:101F3000E652ABA205D0AB98AE50DF6EAB8802D0B4
:101F4000AE50DF6EDF50E5521ED171D8E66AC1DFB8
:101F5000E55281AC02D08B8601D08B96200E010118
:101F6000E76E4019E8AE02D0E73402D0E750405D9A
:101F70005DE36450020B01E0120001017E5115E1A6
:101F8000400EE66EA00EE66E000EE66E58EC11F006
:101F9000E552E552E5520001E16FE850000805E224
:101FA0000101010E7E6F0001E26B01017E5115E01F
:101FB000AC50020B12E00001E251EA6AA00FE96E98
:101FC000000EEA22EF50E66E2DDFE5520001E22B13
:101FD000E151E25D02E101017E6B9E50200B10E0B9
:101FE0003F0E0001E05D0CE2A2DFE66E0001E05171
:101FF000D3D8E552E750EF6EE02BE051CDD8EF6A31
:102000000001E85111E10001E05100080DE2E0C0DB
:10201000E6FF600EE66E000EE66E97EC11F0E552FC
:10202000E552E5520001E06BE8EC11F0120001010D
:102030008351841104E1100E836F270E846F830790
:10204000000E845B64A207D0835184112AE18B7057
:102050008BB013D01CD00101405102E18B9017D0FE
:10206000400502E18B8009D0020E405D02E18B80C9
:102070000ED0040E405D03E18B908B821200100E97
:10208000405D07E10101835184110BE18B708B925C
:102090001200200E405D05E101018351841101E130
:1020A0008B7012001200120012001200D6EF10F016
:1020B000120036EF11F00101630520E10101640512
:1020C0001DE1A094F0DF64920101646B0001100E29
:1020D000E56F0E0EE66FE507000EE65BE551E611D3
:1020E000FAE16484080EE56F070EE66FE507000E5F
:1020F000E65BE551E611FAE16494A084120047D84A
:10210000FD0EDBCF06F0FE0EDBCF07F0050E061846
:1021100001E1075036E0E868061802E17F0E071873
:102120002FE0030E061801E1075028E0020E061802
:1021300001E1075021E0010E061801E107501AE005
:10214000740E061801E1075013E0750E061801E140
:1021500007500CE0730E061801E1075005E0720EFF
:1021600006180FE107500DD09FDF0BD09BDF09D081
:102170009ADF07D09EDF05D09BDF03D097DF01D029
:1021800094DF010E00D0E552E7CFD9FF1200D9CF7E
:10219000E6FFE1CFD9FF1200EA6A600FE96E000E98
:1021A000EA221200F4DFFE0EDB5012000201305171
:1021B0001F0B010801E012003051600BE842E842B9
:1021C000E842E842E842010801E01200345103E02D
:1021D000340501E012003151220A33E0030A26E0FF
:1021E000010A15E0210A0DE0010A01E012000101D7
:1021F000F80E556F000E566F080E586F596B5781C9
:1022000033D00101F80E556F000E566F2DD036C237
:102210005DF137C25EF10101400E5A6F020E5B6F35
:102220002A0E5F6F1E0E606F5C8F12000101C80ED8
:10223000556F020E566F070E586F596BC10E576FD0
:10224000120032C2F3F00001F351020B01E0010E63
:10225000E66E66EC0FF0E5520001F351010BE66EFD
:102260008CEC0FF0E5520101578F12000201C86B90
:102270004B0EC96FCA6BCB6BCC6BCD6B080ECE6FA0
:102280000001E76B1A0EE66E010EE66EA6EC0CF08E
:10229000E552E5521E0EE66E020EE66EA6EC0CF05E
:1022A000E552E55246D90001F16BF26BE86B120082
:1022B0002BD90001E76BEF51F01102E1000E05D0C0
:1022C00033D9EF50800B01E0010E00092DE1FC0E27
:1022D000DBCF10F029D9EE52EF50D880105405E230
:1022E00023D9EE52FC0EEFCFDBFFE76BFC0EDB5089
:1022F000E75D19E2E751EA6A480FE96E020EEA2249
:10230000EF50E66EE751E76EFD0EDBCFE9FFFE0E04
:10231000DBCFEAFFE750E926000EEA22E552E7505C
:10232000EF6EE72BE3D705D90001E751F2D0ECD8E7
:10233000A0940001E85107E1E0D8FC0EDBCFEDF0FE
:10234000010EEE6FE86FA084E4D008D917E1BAD887
:10235000E4D802E111500BE0010EDBCFE9FFDB2AEC
:10236000020EDBCFEAFF01E3DB2AEF50F1E1C5D833
:10237000DFCFEDF00001010EEE6FE86FA084030ED9
:10238000E15C02E2E16AE552E16EC3D0E7D818E110
:1023900099D8C3D802E111500CE0010EDBCFF6FF53
:1023A000DB2A020EDBCFF7FF01E3DB2A0800F55042
:1023B000F0E1A3D8DFCFEDF00001EE6B010EE86F86
:1023C000A084030EE15C02E2E16AE552E16EA1D075
:1023D0009BD8020EE126A0940001F151F21102E116
:1023E000000E08D0F1C0E9FFF2C0EAFFEF50800B09
:1023F00001E0010E000906E1030EE85D01E1E86B72
:10240000E85102E1A0844ED0020EE85D09E1E66ADF
:10241000000EE66EE66A9AD80001030EE86F41D01E
:10242000E8053FE1400E106E116AED51105C000EA0
:10243000115803E2400EDF6E02D0EDC0DFFFDF5027
:10244000ED5DED6F880EEB6F020EEC6F010EDFCFCE
:10245000DBFFEE510BE1010EDB5012E0E9C0F6FFAD
:10246000EAC0F7FF0800F5503BD8F5D7010EDB5066
:1024700007E0E9C0E9FFEAC0EAFFEF5031D8F6D73C
:102480000001ED5107E1400EDF5C02E1020E01D0D8
:10249000030EE86FDFCFE6FF880EE66E020EE66EF3
:1024A00055D8A084020EE15C02E2E16AE552E16ED9
:1024B00030D0020EE66ED6EC0CF0106E050EE15E2A
:1024C00010501200DF6AFD0EDBCF06F0FE0EDBCFF0
:1024D00007F0DE5206C0DEFF07C0DDFFDD5212004E
:1024E000EBC0E9FFECC0EAFFEF6EEB2B000EEC2334
:1024F000E92BEA23010EDB061200FD0EDBCFE9F02B
:10250000FE0EDBCFEAF01200D9CFE6FFE1CFD9FF14
:102510001200E552E7CFD9FF1200DF2ADF50106E1C
:10252000116AFF0E10181200EFC0E9FFF0C0EAFFB9
:102530001200400EE66E480EE66E020EE66EE66A89
:10254000B8DFF3CFEFF0F4CFF0F01200010EE66E3B
:10255000B0DFF3CFF1F0F4CFF2F01200D5DF030ECD
:10256000E126A0940001E8511200120100020200CD
:102570000008D8040A00000101020001090243001A
:10258000020100C03209040000010202010005241A
:1025900000100104240202052406000105240100A4
:1025A000010705810308000209040100020A000076
:1025B00000070502024000000705820240000004F7
:1025C0000309043403530075007300700065006351
:1025D0000074002000440065007600690063006517
:1025E00000730020005300540041005900200043B4
:1025F0000041004C004D003403540072006500207F
:10260000004200690074006300680069006E0020E9
:1026100000550053004200200032002000530065A6
:10262000007200690061006C0021007C25BF25C399
:1026300025F725FF1E0EF66E100EF76E000EF86ED3
:1026400001010900F550796F0900F5507A6F03E137
:10265000796701D03DD00900F550746F0900F5503D
:10266000756F0900F550766F09000900F550E96EA5
:102670000900F550EA6E090009000900F550776F6E
:102680000900F550786F09000900F6CF7BF1F7CF0C
:102690007CF1F8CF7DF174C1F6FF75C1F7FF76C10B
:1026A000F8FF0101775302E1785307E00900F55084
:1026B000EE6E7707F8E27807F9D77BC1F6FF7CC1A9
:1026C000F7FF7DC1F8FF01017907000E7A5BBFD7E4
:1026D0001200036A026A016A006A200EE76ED8904F
:1026E000043605360636073600360136023603361E
:1026F0000950005C0A5001580B5002580C50035806
:1027000009E30950005E0A50015A0B50025A0C505E
:10271000035A042AE72EE4D71200FE0EE3CFE9FFA6
:10272000FF0EE3CFEAFFE9CFF3FFEACFF4FFFB0EA2
:10273000E35003E1FC0EE35009E0FB0EE30602E286
:10274000FC0EE306FD0EE350EE6EF1D71200000E14
:10275000F36E00EE00F0030E01D81200EA6002D022
:10276000EE6AFCD7F350E9601200EE6AFCD711EE76
:1027700000F021EE00F0F86A0F9C1AEC13F003EC65
:1027800008F0D6EC0EF0FBD71200FFFFFFFFFFFFB3
:10279000FFFFFFFFFFFFFFFFFFFFFFFFFFFFFFFF49
:1027A000FFFFFFFFFFFFFFFFFFFFFFFFFFFFFFFF39
:1027B000FFFFFFFFFFFFFFFFFFFFFFFFFFFFFFFF29
:1027C000FFFFFFFFFFFFFFFFFFFFFFFFFFFFFFFF19
:0200000400F00A
:020000040030CA
:0E0000000032211E0000010003C003E0034097
:020000040020DA
:08000000FFFFFFFFFFFFFFFF00
:00000001FF
